{
  "_format": "hh-sol-artifact-1",
  "contractName": "NFT",
  "sourceName": "contracts/NFT.sol",
  "abi": [
    {
      "anonymous": false,
      "inputs": [
        {
          "indexed": true,
          "internalType": "address",
          "name": "owner",
          "type": "address"
        },
        {
          "indexed": false,
          "internalType": "uint256",
          "name": "tokenId",
          "type": "uint256"
        },
        {
          "indexed": false,
          "internalType": "string",
          "name": "uri",
          "type": "string"
        }
      ],
      "name": "Minted",
      "type": "event"
    },
    {
      "inputs": [
        {
          "internalType": "uint256",
          "name": "tokenId",
          "type": "uint256"
        }
      ],
      "name": "getTokenURI",
      "outputs": [
        {
          "internalType": "string",
          "name": "",
          "type": "string"
        }
      ],
      "stateMutability": "view",
      "type": "function"
    },
    {
      "inputs": [
        {
          "internalType": "string",
          "name": "_uri",
          "type": "string"
        }
      ],
      "name": "mint",
      "outputs": [
        {
          "internalType": "uint256",
          "name": "",
          "type": "uint256"
        }
      ],
      "stateMutability": "nonpayable",
      "type": "function"
    },
    {
      "inputs": [],
      "name": "name",
      "outputs": [
        {
          "internalType": "string",
          "name": "",
          "type": "string"
        }
      ],
      "stateMutability": "view",
      "type": "function"
    },
    {
      "inputs": [
        {
          "internalType": "uint256",
          "name": "",
          "type": "uint256"
        }
      ],
      "name": "ownerOf",
      "outputs": [
        {
          "internalType": "address",
          "name": "",
          "type": "address"
        }
      ],
      "stateMutability": "view",
      "type": "function"
    },
    {
      "inputs": [],
      "name": "symbol",
      "outputs": [
        {
          "internalType": "string",
          "name": "",
          "type": "string"
        }
      ],
      "stateMutability": "view",
      "type": "function"
    },
    {
      "inputs": [],
      "name": "tokenCounter",
      "outputs": [
        {
          "internalType": "uint256",
          "name": "",
          "type": "uint256"
        }
      ],
      "stateMutability": "view",
      "type": "function"
    },
    {
      "inputs": [
        {
          "internalType": "uint256",
          "name": "",
          "type": "uint256"
        }
      ],
      "name": "tokenURI",
      "outputs": [
        {
          "internalType": "string",
          "name": "",
          "type": "string"
        }
      ],
      "stateMutability": "view",
      "type": "function"
    },
    {
      "inputs": [
        {
          "internalType": "address",
          "name": "from",
          "type": "address"
        },
        {
          "internalType": "address",
          "name": "to",
          "type": "address"
        },
        {
          "internalType": "uint256",
          "name": "tokenId",
          "type": "uint256"
        }
      ],
      "name": "transferFrom",
      "outputs": [],
      "stateMutability": "nonpayable",
      "type": "function"
    }
  ],
  "bytecode": "0x60806040526040518060400160405280600e81526020017f4e465420436f6c6c656374696f6e000000000000000000000000000000000000815250600090816200004a919062000325565b506040518060400160405280600481526020017f4e465443000000000000000000000000000000000000000000000000000000008152506001908162000091919062000325565b506000600255348015620000a457600080fd5b506200040c565b600081519050919050565b7f4e487b7100000000000000000000000000000000000000000000000000000000600052604160045260246000fd5b7f4e487b7100000000000000000000000000000000000000000000000000000000600052602260045260246000fd5b600060028204905060018216806200012d57607f821691505b602082108103620001435762000142620000e5565b5b50919050565b60008190508160005260206000209050919050565b60006020601f8301049050919050565b600082821b905092915050565b600060088302620001ad7fffffffffffffffffffffffffffffffffffffffffffffffffffffffffffffffff826200016e565b620001b986836200016e565b95508019841693508086168417925050509392505050565b6000819050919050565b6000819050919050565b60006200020662000200620001fa84620001d1565b620001db565b620001d1565b9050919050565b6000819050919050565b6200022283620001e5565b6200023a62000231826200020d565b8484546200017b565b825550505050565b600090565b6200025162000242565b6200025e81848462000217565b505050565b5b8181101562000286576200027a60008262000247565b60018101905062000264565b5050565b601f821115620002d5576200029f8162000149565b620002aa846200015e565b81016020851015620002ba578190505b620002d2620002c9856200015e565b83018262000263565b50505b505050565b600082821c905092915050565b6000620002fa60001984600802620002da565b1980831691505092915050565b6000620003158383620002e7565b9150826002028217905092915050565b6200033082620000ab565b67ffffffffffffffff8111156200034c576200034b620000b6565b5b62000358825462000114565b620003658282856200028a565b600060209050601f8311600181146200039d576000841562000388578287015190505b62000394858262000307565b86555062000404565b601f198416620003ad8662000149565b60005b82811015620003d757848901518255600182019150602085019450602081019050620003b0565b86831015620003f75784890151620003f3601f891682620002e7565b8355505b6001600288020188555050505b505050505050565b610eee806200041c6000396000f3fe608060405234801561001057600080fd5b50600436106100885760003560e01c806395d89b411161005b57806395d89b4114610127578063c87b56dd14610145578063d082e38114610175578063d85d3d271461019357610088565b806306fdde031461008d57806323b872dd146100ab5780633bb3a24d146100c75780636352211e146100f7575b600080fd5b6100956101c3565b6040516100a2919061073f565b60405180910390f35b6100c560048036038101906100c09190610809565b610251565b005b6100e160048036038101906100dc919061085c565b6103b7565b6040516100ee919061073f565b60405180910390f35b610111600480360381019061010c919061085c565b61045c565b60405161011e9190610898565b60405180910390f35b61012f61048f565b60405161013c919061073f565b60405180910390f35b61015f600480360381019061015a919061085c565b61051d565b60405161016c919061073f565b60405180910390f35b61017d6105bd565b60405161018a91906108c2565b60405180910390f35b6101ad60048036038101906101a89190610a12565b6105c3565b6040516101ba91906108c2565b60405180910390f35b600080546101d090610a8a565b80601f01602080910402602001604051908101604052809291908181526020018280546101fc90610a8a565b80156102495780601f1061021e57610100808354040283529160200191610249565b820191906000526020600020905b81548152906001019060200180831161022c57829003601f168201915b505050505081565b8273ffffffffffffffffffffffffffffffffffffffff166003600083815260200190815260200160002060009054906101000a900473ffffffffffffffffffffffffffffffffffffffff1673ffffffffffffffffffffffffffffffffffffffff16146102f2576040517f08c379a00000000000000000000000000000000000000000000000000000000081526004016102e990610b07565b60405180910390fd5b8273ffffffffffffffffffffffffffffffffffffffff163373ffffffffffffffffffffffffffffffffffffffff1614610360576040517f08c379a000000000000000000000000000000000000000000000000000000000815260040161035790610b73565b60405180910390fd5b816003600083815260200190815260200160002060006101000a81548173ffffffffffffffffffffffffffffffffffffffff021916908373ffffffffffffffffffffffffffffffffffffffff160217905550505050565b60606004600083815260200190815260200160002080546103d790610a8a565b80601f016020809104026020016040519081016040528092919081815260200182805461040390610a8a565b80156104505780601f1061042557610100808354040283529160200191610450565b820191906000526020600020905b81548152906001019060200180831161043357829003601f168201915b50505050509050919050565b60036020528060005260406000206000915054906101000a900473ffffffffffffffffffffffffffffffffffffffff1681565b6001805461049c90610a8a565b80601f01602080910402602001604051908101604052809291908181526020018280546104c890610a8a565b80156105155780601f106104ea57610100808354040283529160200191610515565b820191906000526020600020905b8154815290600101906020018083116104f857829003601f168201915b505050505081565b6004602052806000526040600020600091509050805461053c90610a8a565b80601f016020809104026020016040519081016040528092919081815260200182805461056890610a8a565b80156105b55780601f1061058a576101008083540402835291602001916105b5565b820191906000526020600020905b81548152906001019060200180831161059857829003601f168201915b505050505081565b60025481565b6000806002549050336003600083815260200190815260200160002060006101000a81548173ffffffffffffffffffffffffffffffffffffffff021916908373ffffffffffffffffffffffffffffffffffffffff1602179055508260046000838152602001908152602001600020908161063d9190610d3f565b503373ffffffffffffffffffffffffffffffffffffffff167fe7cd4ce7f2a465edc730269a1305e8a48bad821e8fb7e152ec413829c01a53c48285604051610686929190610e11565b60405180910390a2600260008154809291906106a190610e70565b919050555080915050919050565b600081519050919050565b600082825260208201905092915050565b60005b838110156106e95780820151818401526020810190506106ce565b60008484015250505050565b6000601f19601f8301169050919050565b6000610711826106af565b61071b81856106ba565b935061072b8185602086016106cb565b610734816106f5565b840191505092915050565b600060208201905081810360008301526107598184610706565b905092915050565b6000604051905090565b600080fd5b600080fd5b600073ffffffffffffffffffffffffffffffffffffffff82169050919050565b60006107a082610775565b9050919050565b6107b081610795565b81146107bb57600080fd5b50565b6000813590506107cd816107a7565b92915050565b6000819050919050565b6107e6816107d3565b81146107f157600080fd5b50565b600081359050610803816107dd565b92915050565b6000806000606084860312156108225761082161076b565b5b6000610830868287016107be565b9350506020610841868287016107be565b9250506040610852868287016107f4565b9150509250925092565b6000602082840312156108725761087161076b565b5b6000610880848285016107f4565b91505092915050565b61089281610795565b82525050565b60006020820190506108ad6000830184610889565b92915050565b6108bc816107d3565b82525050565b60006020820190506108d760008301846108b3565b92915050565b600080fd5b600080fd5b7f4e487b7100000000000000000000000000000000000000000000000000000000600052604160045260246000fd5b61091f826106f5565b810181811067ffffffffffffffff8211171561093e5761093d6108e7565b5b80604052505050565b6000610951610761565b905061095d8282610916565b919050565b600067ffffffffffffffff82111561097d5761097c6108e7565b5b610986826106f5565b9050602081019050919050565b82818337600083830152505050565b60006109b56109b084610962565b610947565b9050828152602081018484840111156109d1576109d06108e2565b5b6109dc848285610993565b509392505050565b600082601f8301126109f9576109f86108dd565b5b8135610a098482602086016109a2565b91505092915050565b600060208284031215610a2857610a2761076b565b5b600082013567ffffffffffffffff811115610a4657610a45610770565b5b610a52848285016109e4565b91505092915050565b7f4e487b7100000000000000000000000000000000000000000000000000000000600052602260045260246000fd5b60006002820490506001821680610aa257607f821691505b602082108103610ab557610ab4610a5b565b5b50919050565b7f4e6f7420746f6b656e206f776e65720000000000000000000000000000000000600082015250565b6000610af1600f836106ba565b9150610afc82610abb565b602082019050919050565b60006020820190508181036000830152610b2081610ae4565b9050919050565b7f4e6f7420617574686f72697a6564000000000000000000000000000000000000600082015250565b6000610b5d600e836106ba565b9150610b6882610b27565b602082019050919050565b60006020820190508181036000830152610b8c81610b50565b9050919050565b60008190508160005260206000209050919050565b60006020601f8301049050919050565b600082821b905092915050565b600060088302610bf57fffffffffffffffffffffffffffffffffffffffffffffffffffffffffffffffff82610bb8565b610bff8683610bb8565b95508019841693508086168417925050509392505050565b6000819050919050565b6000610c3c610c37610c32846107d3565b610c17565b6107d3565b9050919050565b6000819050919050565b610c5683610c21565b610c6a610c6282610c43565b848454610bc5565b825550505050565b600090565b610c7f610c72565b610c8a818484610c4d565b505050565b5b81811015610cae57610ca3600082610c77565b600181019050610c90565b5050565b601f821115610cf357610cc481610b93565b610ccd84610ba8565b81016020851015610cdc578190505b610cf0610ce885610ba8565b830182610c8f565b50505b505050565b600082821c905092915050565b6000610d1660001984600802610cf8565b1980831691505092915050565b6000610d2f8383610d05565b9150826002028217905092915050565b610d48826106af565b67ffffffffffffffff811115610d6157610d606108e7565b5b610d6b8254610a8a565b610d76828285610cb2565b600060209050601f831160018114610da95760008415610d97578287015190505b610da18582610d23565b865550610e09565b601f198416610db786610b93565b60005b82811015610ddf57848901518255600182019150602085019450602081019050610dba565b86831015610dfc5784890151610df8601f891682610d05565b8355505b6001600288020188555050505b505050505050565b6000604082019050610e2660008301856108b3565b8181036020830152610e388184610706565b90509392505050565b7f4e487b7100000000000000000000000000000000000000000000000000000000600052601160045260246000fd5b6000610e7b826107d3565b91507fffffffffffffffffffffffffffffffffffffffffffffffffffffffffffffffff8203610ead57610eac610e41565b5b60018201905091905056fea26469706673582212204f391494f646f6e3d14c5220860a6da76b3a55f3bd28353b3e98b1d02873e8d464736f6c63430008140033",
  "linkReferences": {},
  "deployedLinkReferences": {}
}