{
  "_format": "hh-sol-artifact-1",
  "contractName": "NFTMarketplace",
  "sourceName": "contracts/NFTMarketplace.sol",
  "abi": [
    {
      "anonymous": false,
      "inputs": [
        {
          "indexed": true,
          "internalType": "address",
          "name": "owner",
          "type": "address"
        },
        {
          "indexed": true,
          "internalType": "uint256",
          "name": "tokenId",
          "type": "uint256"
        },
        {
          "indexed": false,
          "internalType": "uint256",
          "name": "price",
          "type": "uint256"
        }
      ],
      "name": "Minted",
      "type": "event"
    },
    {
      "anonymous": false,
      "inputs": [
        {
          "indexed": true,
          "internalType": "address",
          "name": "buyer",
          "type": "address"
        },
        {
          "indexed": true,
          "internalType": "uint256",
          "name": "tokenId",
          "type": "uint256"
        },
        {
          "indexed": false,
          "internalType": "uint256",
          "name": "price",
          "type": "uint256"
        }
      ],
      "name": "Purchased",
      "type": "event"
    },
    {
      "inputs": [
        {
          "internalType": "uint256",
          "name": "_tokenId",
          "type": "uint256"
        }
      ],
      "name": "buyNFT",
      "outputs": [],
      "stateMutability": "payable",
      "type": "function"
    },
    {
      "inputs": [],
      "name": "getAllNFTs",
      "outputs": [
        {
          "components": [
            {
              "internalType": "uint256",
              "name": "tokenId",
              "type": "uint256"
            },
            {
              "internalType": "address",
              "name": "owner",
              "type": "address"
            },
            {
              "internalType": "string",
              "name": "tokenURI",
              "type": "string"
            },
            {
              "internalType": "uint256",
              "name": "price",
              "type": "uint256"
            },
            {
              "internalType": "bool",
              "name": "isListed",
              "type": "bool"
            }
          ],
          "internalType": "struct NFTMarketplace.NFT[]",
          "name": "",
          "type": "tuple[]"
        }
      ],
      "stateMutability": "view",
      "type": "function"
    },
    {
      "inputs": [
        {
          "internalType": "address",
          "name": "user",
          "type": "address"
        }
      ],
      "name": "getMyNFTs",
      "outputs": [
        {
          "components": [
            {
              "internalType": "uint256",
              "name": "tokenId",
              "type": "uint256"
            },
            {
              "internalType": "address",
              "name": "owner",
              "type": "address"
            },
            {
              "internalType": "string",
              "name": "tokenURI",
              "type": "string"
            },
            {
              "internalType": "uint256",
              "name": "price",
              "type": "uint256"
            },
            {
              "internalType": "bool",
              "name": "isListed",
              "type": "bool"
            }
          ],
          "internalType": "struct NFTMarketplace.NFT[]",
          "name": "",
          "type": "tuple[]"
        }
      ],
      "stateMutability": "view",
      "type": "function"
    },
    {
      "inputs": [
        {
          "internalType": "string",
          "name": "_tokenURI",
          "type": "string"
        },
        {
          "internalType": "uint256",
          "name": "_priceInWei",
          "type": "uint256"
        }
      ],
      "name": "mintNFT",
      "outputs": [],
      "stateMutability": "nonpayable",
      "type": "function"
    },
    {
      "inputs": [],
      "name": "name",
      "outputs": [
        {
          "internalType": "string",
          "name": "",
          "type": "string"
        }
      ],
      "stateMutability": "view",
      "type": "function"
    },
    {
      "inputs": [
        {
          "internalType": "uint256",
          "name": "",
          "type": "uint256"
        }
      ],
      "name": "nfts",
      "outputs": [
        {
          "internalType": "uint256",
          "name": "tokenId",
          "type": "uint256"
        },
        {
          "internalType": "address",
          "name": "owner",
          "type": "address"
        },
        {
          "internalType": "string",
          "name": "tokenURI",
          "type": "string"
        },
        {
          "internalType": "uint256",
          "name": "price",
          "type": "uint256"
        },
        {
          "internalType": "bool",
          "name": "isListed",
          "type": "bool"
        }
      ],
      "stateMutability": "view",
      "type": "function"
    },
    {
      "inputs": [
        {
          "internalType": "address",
          "name": "",
          "type": "address"
        },
        {
          "internalType": "uint256",
          "name": "",
          "type": "uint256"
        }
      ],
      "name": "ownerToNFTs",
      "outputs": [
        {
          "internalType": "uint256",
          "name": "",
          "type": "uint256"
        }
      ],
      "stateMutability": "view",
      "type": "function"
    },
    {
      "inputs": [],
      "name": "totalSupply",
      "outputs": [
        {
          "internalType": "uint256",
          "name": "",
          "type": "uint256"
        }
      ],
      "stateMutability": "view",
      "type": "function"
    }
  ],
  "bytecode": "0x60806040526040518060400160405280601681526020017f53696d706c65204e4654204d61726b6574706c61636500000000000000000000815250600090816200004a9190620002de565b5060006001553480156200005d57600080fd5b50620003c5565b600081519050919050565b7f4e487b7100000000000000000000000000000000000000000000000000000000600052604160045260246000fd5b7f4e487b7100000000000000000000000000000000000000000000000000000000600052602260045260246000fd5b60006002820490506001821680620000e657607f821691505b602082108103620000fc57620000fb6200009e565b5b50919050565b60008190508160005260206000209050919050565b60006020601f8301049050919050565b600082821b905092915050565b600060088302620001667fffffffffffffffffffffffffffffffffffffffffffffffffffffffffffffffff8262000127565b62000172868362000127565b95508019841693508086168417925050509392505050565b6000819050919050565b6000819050919050565b6000620001bf620001b9620001b3846200018a565b62000194565b6200018a565b9050919050565b6000819050919050565b620001db836200019e565b620001f3620001ea82620001c6565b84845462000134565b825550505050565b600090565b6200020a620001fb565b62000217818484620001d0565b505050565b5b818110156200023f576200023360008262000200565b6001810190506200021d565b5050565b601f8211156200028e57620002588162000102565b620002638462000117565b8101602085101562000273578190505b6200028b620002828562000117565b8301826200021c565b50505b505050565b600082821c905092915050565b6000620002b36000198460080262000293565b1980831691505092915050565b6000620002ce8383620002a0565b9150826002028217905092915050565b620002e98262000064565b67ffffffffffffffff8111156200030557620003046200006f565b5b620003118254620000cd565b6200031e82828562000243565b600060209050601f83116001811462000356576000841562000341578287015190505b6200034d8582620002c0565b865550620003bd565b601f198416620003668662000102565b60005b82811015620003905784890151825560018201915060208501945060208101905062000369565b86831015620003b05784890151620003ac601f891682620002a0565b8355505b6001600288020188555050505b505050505050565b61170580620003d56000396000f3fe60806040526004361061007b5760003560e01c80635afa3a721161004e5780635afa3a7214610133578063ad0f93ad1461015c578063e0391b0914610199578063e921ee6e146101c45761007b565b806306fdde031461008057806318160ddd146100ab578063265aa621146100d657806351ed828814610117575b600080fd5b34801561008c57600080fd5b50610095610201565b6040516100a29190610cff565b60405180910390f35b3480156100b757600080fd5b506100c061028f565b6040516100cd9190610d3a565b60405180910390f35b3480156100e257600080fd5b506100fd60048036038101906100f89190610d95565b610295565b60405161010e959493929190610e1e565b60405180910390f35b610131600480360381019061012c9190610d95565b610380565b005b34801561013f57600080fd5b5061015a60048036038101906101559190610fad565b6105c1565b005b34801561016857600080fd5b50610183600480360381019061017e9190611035565b61079c565b6040516101909190610d3a565b60405180910390f35b3480156101a557600080fd5b506101ae6107cd565b6040516101bb9190611224565b60405180910390f35b3480156101d057600080fd5b506101eb60048036038101906101e69190611246565b6109a4565b6040516101f89190611224565b60405180910390f35b6000805461020e906112a2565b80601f016020809104026020016040519081016040528092919081815260200182805461023a906112a2565b80156102875780601f1061025c57610100808354040283529160200191610287565b820191906000526020600020905b81548152906001019060200180831161026a57829003601f168201915b505050505081565b60015481565b60026020528060005260406000206000915090508060000154908060010160009054906101000a900473ffffffffffffffffffffffffffffffffffffffff16908060020180546102e4906112a2565b80601f0160208091040260200160405190810160405280929190818152602001828054610310906112a2565b801561035d5780601f106103325761010080835404028352916020019161035d565b820191906000526020600020905b81548152906001019060200180831161034057829003601f168201915b5050505050908060030154908060040160009054906101000a900460ff16905085565b60006002600083815260200190815260200160002090508060040160009054906101000a900460ff166103e8576040517f08c379a00000000000000000000000000000000000000000000000000000000081526004016103df9061131f565b60405180910390fd5b806003015434101561042f576040517f08c379a00000000000000000000000000000000000000000000000000000000081526004016104269061138b565b60405180910390fd5b60008160010160009054906101000a900473ffffffffffffffffffffffffffffffffffffffff169050338260010160006101000a81548173ffffffffffffffffffffffffffffffffffffffff021916908373ffffffffffffffffffffffffffffffffffffffff16021790555060008260040160006101000a81548160ff021916908315150217905550600360003373ffffffffffffffffffffffffffffffffffffffff1673ffffffffffffffffffffffffffffffffffffffff1681526020019081526020016000208390806001815401808255809150506001900390600052602060002001600090919091909150558073ffffffffffffffffffffffffffffffffffffffff166108fc83600301549081150290604051600060405180830381858888f19350505050158015610568573d6000803e3d6000fd5b50823373ffffffffffffffffffffffffffffffffffffffff167ff761777482b4b40d2bcc0d050cfba6829900a2d8b3484bd0244ec0feeb3db50484600301546040516105b49190610d3a565b60405180910390a3505050565b60006001549050600160008154809291906105db906113da565b919050555060008083146105ef57826105f8565b6611c37937e080005b90506040518060a001604052808381526020013373ffffffffffffffffffffffffffffffffffffffff16815260200185815260200182815260200160011515815250600260008481526020019081526020016000206000820151816000015560208201518160010160006101000a81548173ffffffffffffffffffffffffffffffffffffffff021916908373ffffffffffffffffffffffffffffffffffffffff16021790555060408201518160020190816106b391906115ce565b506060820151816003015560808201518160040160006101000a81548160ff021916908315150217905550905050600360003373ffffffffffffffffffffffffffffffffffffffff1673ffffffffffffffffffffffffffffffffffffffff168152602001908152602001600020829080600181540180825580915050600190039060005260206000200160009091909190915055813373ffffffffffffffffffffffffffffffffffffffff167f25b428dfde728ccfaddad7e29e4ac23c24ed7fd1a6e3e3f91894a9a073f5dfff8360405161078e9190610d3a565b60405180910390a350505050565b600360205281600052604060002081815481106107b857600080fd5b90600052602060002001600091509150505481565b6060600060015467ffffffffffffffff8111156107ed576107ec610e82565b5b60405190808252806020026020018201604052801561082657816020015b610813610c28565b81526020019060019003908161080b5790505b50905060005b60015481101561099c57600260008281526020019081526020016000206040518060a0016040529081600082015481526020016001820160009054906101000a900473ffffffffffffffffffffffffffffffffffffffff1673ffffffffffffffffffffffffffffffffffffffff1673ffffffffffffffffffffffffffffffffffffffff1681526020016002820180546108c4906112a2565b80601f01602080910402602001604051908101604052809291908181526020018280546108f0906112a2565b801561093d5780601f106109125761010080835404028352916020019161093d565b820191906000526020600020905b81548152906001019060200180831161092057829003601f168201915b50505050508152602001600382015481526020016004820160009054906101000a900460ff16151515158152505082828151811061097e5761097d6116a0565b5b60200260200101819052508080610994906113da565b91505061082c565b508091505090565b60606000600360008473ffffffffffffffffffffffffffffffffffffffff1673ffffffffffffffffffffffffffffffffffffffff168152602001908152602001600020805480602002602001604051908101604052809291908181526020018280548015610a3157602002820191906000526020600020905b815481526020019060010190808311610a1d575b505050505090506000815167ffffffffffffffff811115610a5557610a54610e82565b5b604051908082528060200260200182016040528015610a8e57816020015b610a7b610c28565b815260200190600190039081610a735790505b50905060005b8251811015610c1d5760026000848381518110610ab457610ab36116a0565b5b602002602001015181526020019081526020016000206040518060a0016040529081600082015481526020016001820160009054906101000a900473ffffffffffffffffffffffffffffffffffffffff1673ffffffffffffffffffffffffffffffffffffffff1673ffffffffffffffffffffffffffffffffffffffff168152602001600282018054610b45906112a2565b80601f0160208091040260200160405190810160405280929190818152602001828054610b71906112a2565b8015610bbe5780601f10610b9357610100808354040283529160200191610bbe565b820191906000526020600020905b815481529060010190602001808311610ba157829003601f168201915b50505050508152602001600382015481526020016004820160009054906101000a900460ff161515151581525050828281518110610bff57610bfe6116a0565b5b60200260200101819052508080610c15906113da565b915050610a94565b508092505050919050565b6040518060a0016040528060008152602001600073ffffffffffffffffffffffffffffffffffffffff16815260200160608152602001600081526020016000151581525090565b600081519050919050565b600082825260208201905092915050565b60005b83811015610ca9578082015181840152602081019050610c8e565b60008484015250505050565b6000601f19601f8301169050919050565b6000610cd182610c6f565b610cdb8185610c7a565b9350610ceb818560208601610c8b565b610cf481610cb5565b840191505092915050565b60006020820190508181036000830152610d198184610cc6565b905092915050565b6000819050919050565b610d3481610d21565b82525050565b6000602082019050610d4f6000830184610d2b565b92915050565b6000604051905090565b600080fd5b600080fd5b610d7281610d21565b8114610d7d57600080fd5b50565b600081359050610d8f81610d69565b92915050565b600060208284031215610dab57610daa610d5f565b5b6000610db984828501610d80565b91505092915050565b600073ffffffffffffffffffffffffffffffffffffffff82169050919050565b6000610ded82610dc2565b9050919050565b610dfd81610de2565b82525050565b60008115159050919050565b610e1881610e03565b82525050565b600060a082019050610e336000830188610d2b565b610e406020830187610df4565b8181036040830152610e528186610cc6565b9050610e616060830185610d2b565b610e6e6080830184610e0f565b9695505050505050565b600080fd5b600080fd5b7f4e487b7100000000000000000000000000000000000000000000000000000000600052604160045260246000fd5b610eba82610cb5565b810181811067ffffffffffffffff82111715610ed957610ed8610e82565b5b80604052505050565b6000610eec610d55565b9050610ef88282610eb1565b919050565b600067ffffffffffffffff821115610f1857610f17610e82565b5b610f2182610cb5565b9050602081019050919050565b82818337600083830152505050565b6000610f50610f4b84610efd565b610ee2565b905082815260208101848484011115610f6c57610f6b610e7d565b5b610f77848285610f2e565b509392505050565b600082601f830112610f9457610f93610e78565b5b8135610fa4848260208601610f3d565b91505092915050565b60008060408385031215610fc457610fc3610d5f565b5b600083013567ffffffffffffffff811115610fe257610fe1610d64565b5b610fee85828601610f7f565b9250506020610fff85828601610d80565b9150509250929050565b61101281610de2565b811461101d57600080fd5b50565b60008135905061102f81611009565b92915050565b6000806040838503121561104c5761104b610d5f565b5b600061105a85828601611020565b925050602061106b85828601610d80565b9150509250929050565b600081519050919050565b600082825260208201905092915050565b6000819050602082019050919050565b6110aa81610d21565b82525050565b6110b981610de2565b82525050565b600082825260208201905092915050565b60006110db82610c6f565b6110e581856110bf565b93506110f5818560208601610c8b565b6110fe81610cb5565b840191505092915050565b61111281610e03565b82525050565b600060a08301600083015161113060008601826110a1565b50602083015161114360208601826110b0565b506040830151848203604086015261115b82826110d0565b915050606083015161117060608601826110a1565b5060808301516111836080860182611109565b508091505092915050565b600061119a8383611118565b905092915050565b6000602082019050919050565b60006111ba82611075565b6111c48185611080565b9350836020820285016111d685611091565b8060005b8581101561121257848403895281516111f3858261118e565b94506111fe836111a2565b925060208a019950506001810190506111da565b50829750879550505050505092915050565b6000602082019050818103600083015261123e81846111af565b905092915050565b60006020828403121561125c5761125b610d5f565b5b600061126a84828501611020565b91505092915050565b7f4e487b7100000000000000000000000000000000000000000000000000000000600052602260045260246000fd5b600060028204905060018216806112ba57607f821691505b6020821081036112cd576112cc611273565b5b50919050565b7f4e4654206e6f7420666f722073616c6500000000000000000000000000000000600082015250565b6000611309601083610c7a565b9150611314826112d3565b602082019050919050565b60006020820190508181036000830152611338816112fc565b9050919050565b7f4e6f7420656e6f75676820455448000000000000000000000000000000000000600082015250565b6000611375600e83610c7a565b91506113808261133f565b602082019050919050565b600060208201905081810360008301526113a481611368565b9050919050565b7f4e487b7100000000000000000000000000000000000000000000000000000000600052601160045260246000fd5b60006113e582610d21565b91507fffffffffffffffffffffffffffffffffffffffffffffffffffffffffffffffff8203611417576114166113ab565b5b600182019050919050565b60008190508160005260206000209050919050565b60006020601f8301049050919050565b600082821b905092915050565b6000600883026114847fffffffffffffffffffffffffffffffffffffffffffffffffffffffffffffffff82611447565b61148e8683611447565b95508019841693508086168417925050509392505050565b6000819050919050565b60006114cb6114c66114c184610d21565b6114a6565b610d21565b9050919050565b6000819050919050565b6114e5836114b0565b6114f96114f1826114d2565b848454611454565b825550505050565b600090565b61150e611501565b6115198184846114dc565b505050565b5b8181101561153d57611532600082611506565b60018101905061151f565b5050565b601f8211156115825761155381611422565b61155c84611437565b8101602085101561156b578190505b61157f61157785611437565b83018261151e565b50505b505050565b600082821c905092915050565b60006115a560001984600802611587565b1980831691505092915050565b60006115be8383611594565b9150826002028217905092915050565b6115d782610c6f565b67ffffffffffffffff8111156115f0576115ef610e82565b5b6115fa82546112a2565b611605828285611541565b600060209050601f8311600181146116385760008415611626578287015190505b61163085826115b2565b865550611698565b601f19841661164686611422565b60005b8281101561166e57848901518255600182019150602085019450602081019050611649565b8683101561168b5784890151611687601f891682611594565b8355505b6001600288020188555050505b505050505050565b7f4e487b7100000000000000000000000000000000000000000000000000000000600052603260045260246000fdfea2646970667358221220b1cee35b78141e5c49db392f84b7a6c70a28ec1016051e9cc0f115f1055905f364736f6c63430008140033",
  "linkReferences": {},
  "deployedLinkReferences": {}
}